:020000040000FA
:06000A002D208316860183
:1000100005149F010317081489018312031341304B
:100020009F00A10153209F149F1814281E08A000B0
:10003000CC30A002031C1F2803191F2826280610F5
:100040000630A300A30B4A205820112806140730BD
:10005000A300A30B4020582011288316181519302F
:1000600099009A0118120317871103139816831227
:10007000981708008316981C3B28831299000800E3
:100080002108820761347234723469346234613415
:10009000A10A0800210882076134623461346A349D
:1000A0006F34A10A080005308C008C0B552808001D
:1000B00054308C008A308D0003308E008C0B5E280B
:0C00C0008D0B5E288E0B5E2800000800EF
:00000001FF
