:020000040000FA
:06000A003C208316860174
:1000100005149F01031708148312031341309F0036
:10002000A10160209F149F1813281E08A000B33060
:100030002002031C1E2803191E282D280610063036
:10004000A300A30B29280D3049200A304920652040
:10005000102858204920A10A212806140730A3009F
:10006000A30B38280D3049200A304920652010287C
:100070004F204920A10A30288316181519309900FD
:100080009A011812031787110313981683129817F1
:1000900008008316981C4A2883129900080021083A
:1000A0008207613472347234693462346134080016
:1000B000210882076134623461346A346F34080085
:1000C0000530A700A70B622808005430A4008A302E
:1000D000A5000330A600A40B6B28A50B6B28A60B6C
:0600E0006B28000008007F
:00000001FF
