:1000000001308A002E2900000A108A100A11820786
:1000100028340C3401340634D330EC3AE43773100E
:1000200070396F33E5396F390000E432733265108F
:1000300043103A220000253084008313000803197E
:100040002E280630F800F701F70B2428F80B232898
:100050007B30F700F70B2A28800B212808002C0E94
:10006000F039F7000F300805770488000000081405
:100070000330F700F70B3A28081008000808F700CB
:10008000080E0F39F800080088100F308316080595
:10009000F0388800831208150000081400003E2084
:1000A0007808AC00081000000814562857280000F3
:1000B0003E207808AB0008100F3083160805880032
:1000C00083122C0EF700F030F70577082B04F800A8
:1000D0007808AB00AB1B4528291C88102918881408
:1000E00000000811000008102A0EAB000F30AB050D
:1000F0002B08AC002F202A080F39AB00AC002F20B2
:1001000008000F30831608058800081088100811B1
:1001100083128810081108100F30A5001B20013031
:10012000A1002108033C031C9D280330AC002F20B4
:100130000530A5001B20A10A91280230AC002F2019
:10014000A1012108033C031CAE2821080420A200C1
:10015000A9012208AA004420A10AA1288A110A1292
:100160003B29260BB428B7284030A700B828A701A0
:1001700001302502A70727088038A800A901280810
:10018000AA004420080024080C3A0319CE28063A95
:100190000319D628023A0319DC28E128A901013005
:1001A000AA0044200230A5001B20E7280130A5004A
:1001B0000230A600B120E728A9011030AA0044208F
:1001C000E7280130A9002408AA004420E7280800F5
:1001D000831603178C170C140000000083120C0800
:1001E0007F3903192C290313A10003170D080313EA
:1001F000A20003170F080313A3002108A400C320C3
:10020000220803178D000313230803178F0083169A
:100210008C170C140000000083120C0D0E0D7F399A
:1002200003192C290313A10003170D080313A200BF
:1002300003170F080313A3002108A400C3202208FA
:1002400003178D000313230803178F008D0A03196A
:100250008F0A0313E828031703130800840183138C
:100260001F30830583161F149F141F159F1107301D
:100270009C00831281280130A500A600B1200C301B
:1002800003178D0000308F000313E8200130A50014
:100290000230A600B120153003178D0000308F000A
:0602A0000313E8206300D7
:02400E00713F00
:00000001FF
;PIC16F877A
;CRC=E53E  CREATED="05-Apr-20 01:01"
