:1000000001308A00822900000A108A100A11820732
:1000100028340C3401340634C430F4372029E53157
:10002000693169326F1D2000A53120102010201089
:10003000201020102010201000002730840083138F
:100040000008031930280630F800F701F70B2628BE
:10005000F80B25287B30F700F70B2C28800B232882
:1000600008002E0EF039F7000F30080577048800DD
:10007000000008140330F700F70B3C2808100800B4
:100080000808F700080E0F39F800080088100F3034
:1000900083160805F038880083120815000008143C
:1000A000000040207808AE0008100000081458280E
:1000B0005928000040207808AD0008100F30831642
:1000C0000805880083122E0EF700F030F705770838
:1000D0002D04F8007808AD00AD1B47282B1C8810B4
:1000E0002B18881400000811000008102C0EAD0019
:1000F0000F30AD052D08AE0031202C080F39AD00B2
:10010000AE00312008000F30831608058800081063
:100110008810081183128810081108100F30A700EA
:100120001D200130A2002208033C031C9F2803303D
:10013000AE0031200530A7001D20A20A932802300E
:10014000AE003120A2012208033C031CB028220883
:100150000420A300AB012308AC004620A20AA32878
:100160008A110A129929280BB628B9284030A9000B
:10017000BA28A90101302702A90729088038AA0056
:10018000AB012A08AC004620080026080C3A0319E7
:10019000D028063A0319D828023A0319DE28E328A2
:1001A000AB010130AC0046200230A7001D20E92839
:1001B0000130A7000230A800B320E928AB011030BD
:1001C000AC004620E9280130AB002608AC004620F0
:1001D000E9280800831603178C170C140000000090
:1001E00083120C087F3903192E290313A200031769
:1001F0000D080313A30003170F080313A40022081C
:10020000A600C520230803178D0003132408031735
:100210008F0083168C170C140000000083120C0D45
:100220000E0D7F3903192E290313A20003170D08A1
:100230000313A30003170F080313A4002208A6004A
:10024000C520230803178D000313240803178F000C
:100250008D0A03198F0A0313EA28031703138A115F
:100260000A12A429831603178C170C14000000002F
:100270000318612983120C087F390313A3000317A5
:100280000D080313A40003170F080313A500230888
:10029000A600C520240803178D00031325080317A3
:1002A0008F0083168C170C140000000083120313B8
:1002B000A20B5B295E298316031761297F29831608
:1002C000031783120C0D0E0D7F390313A3000317C0
:1002D0000D080313A40003170F080313A500230838
:1002E000A600C520240803178D0003132508031753
:1002F0008F008D0A03198F0A0313A20B32298A116A
:100300000A12D229840183131F308305813083169A
:100310009900A63098009030831298000130A00018
:1003200083161F149F141F159F1107309C00831202
:1003300083280130A700A800B3200C3003178D00DC
:1003400000308F000313EA2800308C1A0130013C82
:10035000031DD4298C1EAA291A08A10020080F3CCD
:10036000031CC0292008A7000230A800B3202108E0
:10037000A600C52021080C1EBB299900A00AD4297B
:100380000130A7000230A800B3202108A600C52034
:10039000153003178D0000308F0003100E3003134B
:0C03A000A20032290230A000A429630052
:02400E00713F00
:00000001FF
;PIC16F877A
;CRC=6D03  CREATED="07-May-20 01:38"
