:1000000002308A000A2A00000A108A100A118207A8
:1000100028340C3401340634201020102010201015
:1000200020102010201020100000E73084008313DF
:100030000008031928280630F800F701F70B1E28DE
:10004000F80B1D287B30F700F70B2428800B1B28AA
:10005000080083166E0EF039F7000F308312080582
:1000600077048800000008140330F700F70B3628E7
:10007000081008000808F700080E0F39F8000800FB
:1000800088100F3083160805F03888008312081591
:100090000000081400003A2078088316EE0083124E
:1000A0000810000008145428552800003A20780849
:1000B0008316ED00831208100F30831608058800A0
:1000C0006E0EF700F030F70577086D04F800780839
:1000D000ED00ED1F6D28831241286B1872288312E2
:1000E000881083166B1C77288312881483160000EF
:1000F000831208110000081083166C0EED000F30FB
:10010000ED056D08EE008312292083166C080F3967
:10011000ED00EE008312292008000F308316080539
:100120008800081088100811831288100811081020
:100130000F308316E7008312152001308316DF008D
:100140005F08033C031CB0280330EE008312292013
:1001500005308316E700831215208316DF0AA028D6
:100160000230EE00831229208316DF015F08033C72
:10017000031CC7285F08831204208316E000EB01EC
:100180006008EC00831240208316DF0AB628831231
:100190008A110A12232B8316E30803191829600811
:1001A000FA005F08840083137A1883170008E400BC
:1001B0006208FA006108840083137A188317000824
:1001C00064020319FD286008FA005F0884008313A5
:1001D0007A1883170008E4006208FA0061088400B6
:1001E00083137A188317000864020318F928FF3074
:1001F000FA280130F8001A290A296008FA005F0875
:10020000840083137A1883178008031D0A2900309D
:10021000F8001A296008FA005F08DF0A0319E00AEB
:100220006208FA006108E10A0319E20AE303CC2834
:100230000030F800831208008316680B2029232958
:100240004030E9002429E90101306702E907690823
:100250008038EA00EB016A08EC00831240200800B5
:10026000831666080C3A831203193D29063A0319CE
:100270004929023A0319512958298316EB01013003
:10028000EC008312402002308316E7008312152011
:10029000602901308316E7000230E80083121C2138
:1002A00060298316EB011030EC0083124020602996
:1002B00001308316EB006608EC00831240206029B1
:1002C000080001308316E700E80083121C210C307F
:1002D00003178D0000308F0083168C170C1400005C
:1002E000000083120C087F390319C12983160313F8
:1002F000E300831203170D0883160313E40083122F
:1003000003170F0883160313E5006308E600831242
:10031000302183166408831203178D00831603139C
:100320006508831203178F0083168C170C140000C6
:10033000000083120C0D0E0D7F390319C12983169D
:100340000313E300831203170D0883160313E4005D
:10035000831203170F0883160313E5006308E600F2
:100360008312302183166408831203178D008316CD
:1003700003136508831203178F008D0A03198F0A70
:100380006C29013083160313E700E80083121C2157
:100390008316610884008313621883178008031989
:1003A000E829E4010408E3006410831B64140008D6
:1003B000E6008312302183166308840083136418D7
:1003C0008317840A031DE7298312850A8316CE2921
:1003D0005F08840083136018831780080319082AB4
:1003E000E4010408E3006410831B64140008831212
:1003F0000C1EF8299900831663088400831364187F
:100400008317840A031D072A8312850A8316ED29A0
:1004100083120800840183131F3083058130831603
:100420009900A6309800903083129800A20183169C
:100430001F149F141F159F1107309C008312A001E9
:10044000A1016C30AC006530AD006430AE0073309B
:10045000AF002030B0006F30B1006E30B200B30199
:100460006C30B4006530B5006430B6007330B7004E
:100470002030B8006F30B9006630BA00BB00BC0154
:100480005430BD006F30BE006430BF006F30C0001C
:100490007330C1002030C2006C30C3006F30C40024
:1004A0007330C5002030C6006C30C7006530C8000E
:1004B0006430C9007330CA002030CB006530CC00F6
:1004C0006E30CD006330CE006530CF006E30D0008E
:1004D0006430D1006930D2006430D3006F30D40072
:1004E0007330D5002030D6003A30D7004430D800E1
:1004F000D9014C30DA004530DB004430DC005330A9
:10050000DD002030DE004F30DF004E30E0002030D4
:10051000E1003A30E2004430E300E4015430831655
:10052000A0006F30A1006430A2006F30A3007330D0
:10053000A4002030A5006C30A6006F30A7007330F7
:10054000A8002030A9006C30AA006530AB006430F0
:10055000AC007330AD002030AE006130AF007030C1
:10056000B0006130B1006730B2006130B300643078
:10057000B4006F30B5007330B6002030B70078306B
:10058000B8002E30B9007830BA00BB014C3083126D
:10059000E5004530E6004430E7005330E800203005
:1005A000E9004F30EA004630EB00EC002030ED006F
:1005B0007830EE002E30EF007830F000F10143305B
:1005C0008316BC006F30BD006D30BE006130BF00CF
:1005D0006E30C0006430C1006F30C2002030C300F4
:1005E0006E30C4006F30C5002030C6007230C700C6
:1005F0006530C8006330C9006F30CA006E30CB0070
:100600006F30CC006330CD006930CE006430CF0055
:100610006F30D0002030D1003A30D2002830D300E3
:10062000D4014530D5005230D600D7004F30D80025
:100630005230D9002030DA003A30DB002830DC00BC
:10064000DD0183128D280030831686008312860117
:1006500000308C1A0130013C031D832B8C1E2E2B85
:100660001A088316DE0024308312220784008313C5
:1006700083165E0880008312A20A2208073C031D2D
:100680005C2B8316E0012430DF00E2012C30E10016
:100690000730E3008312CB20F808031D5B2B831681
:1006A000E0013D30DF00E2015A30E10083126121B8
:1006B000A201FF308600832B2208083C031D832BF8
:1006C0008316E0012430DF00E2013430E10007301E
:1006D000E3008312CB20F808031D792B8316E00179
:1006E000A030DF00E2016530E10083126121860164
:1006F000822B8316E001BC30DF00E201D530E1003F
:0A07000083126121A201282B63007F
:02400E00713F00
:00000001FF
;PIC16F877A
;CRC=0FF9  CREATED="07-May-20 01:02"
