:020000040000FA
:020000000528D1
:06000A00831686011815A3
:10001000193099009A0118120317871103139816C3
:10002000831298171816A201223084001C20203059
:10003000000203192C2828288C1E1C281A0880006E
:10004000A10008008316981C232883129900080039
:100050002108A00A840A162822308400A00AA00BD6
:1000600032284E283A200002031D42283728C00AB1
:10007000840A2F2840088207503455344D344134C7
:10008000533408008601453022205230222052305D
:1000900022204F3022205230222055280130860065
:0A00A0004F3022204B30222055285B
:02400E00E4309C
:00000001FF
