:020000040000FA
:1000000022200F3009201730092019300920012142
:100010000128A62003215E20E5200800820748343D
:100020006F346C34613420343A34443400347934DD
:1000300000344134643469346F34733420343A34D6
:100040002834003483160710071187108312871095
:1000500007110710EB2030303A20EF2030303A20E3
:10006000D82030303A2020303A2060205E205C20BA
:100070004E200800F039A00006080F39A0048316AE
:100080000608A2000F308605831220088600071597
:1000900007118316220886008312080006306128A3
:1000A00080306128C030612880386128C0386128DC
:1000B000083061280E3061280C3061280130612839
:1000C00028300710652807146D20A1003A20210E62
:1000D0003A20071CF120DD200800A000F13C031DA0
:1000E0007428EE30A00081282008D13C031D7B2815
:1000F000EE30A00081282008BA3C031D8128DF30A3
:10010000A0002008080010308A2801308A28023018
:100110008A280330A30020306320A30B8B2808001B
:10012000A400F039031D9828203063209A28A400E9
:10013000240E9B2024080F39A300093C031CA3288C
:100140002308303EA5282308373E6328A5000E303B
:10015000A502A50325080E20A600A6080319B328AA
:100160006320A50AAA280800A5000E30A502A50351
:10017000A7015E2010302702031DC328E520E520DB
:100180000F30A502B82825080E20A600A6080319DE
:10019000CD286320A70AA50ABA280800000000009D
:1001A000000000000000000008000000A430E1286A
:1001B00000004030E1281F30E12800000E30E12827
:1001C0000530A800A80BE2280800C830F4286430E5
:1001D000F4283230F4281430F4280A30F42805309A
:1001E000F4280230F4280130A900F930A8000000FA
:1001F000A80BF728A90BF5280800C8300829643097
:10020000082932300829143008290A300829053015
:10021000AA006430A900F930A8000000A80B0D293D
:0A022000A90B0B29AA0B09290800FD
:02400E00F13F80
:00000001FF
