:1000000005308A00BD2D00000A108A100A118207EF
:1000100028340C34013406347C2AC526D01EA012A4
:10002000AE18E62DC32E203E00007C28D726A01E49
:10003000A012AE1866102010203E00017C2AC526B2
:10004000D01EA012AE18E62DC32E203E00017C105B
:10005000201020102010201020102010203E000022
:100060003B30840083130008031943280630F8004E
:10007000F701F70B3928F80B38287B30F700F70B1E
:100080003F28800B36280800420EF039F7000F3069
:10009000080577048800000008140330F700F70B08
:1000A0004F28081008000808F700080E0F39F8005C
:1000B000080088100F3083160805F0388800831276
:1000C000081500000814000053207808C20008102A
:1000D000000008146B286C28000053207808C10029
:1000E00008100F308316080588008312420EF700AF
:1000F000F030F70577084104F8007808C100C11B0B
:100100005A283F1C88103F1888140000081100006E
:100110000810400EC1000F30C1054108C200442044
:1001200040080F39C100C200442008000F30831678
:10013000080588000810881008118312881008111B
:1001400008100F30BB0030200130AD002D08033CFB
:10015000031CB2280330C20044200530BB0030200D
:10016000AD0AA6280230C2004420AD012D08033C90
:10017000031CC3282D080420AE00BF012E08C000B8
:100180005920AD0AB6288A110A12D92D8E30F700EF
:100190002E08F8002D08F900FA01F808031DDA28E6
:1001A0007908F800F9010830F702F808031DDA2889
:1001B000F701E2280310F81BE128F90DF80DF70309
:1001C000DA28F8138A110A12FD2D3A080319552965
:1001D000C2003E0803195529C2070318F6287F30CC
:1001E000C202031C552903195529FA288130C20778
:1001F000031855294208F700F801F901FA013B08F4
:10020000C600C6173C08C5003D08C4001830C2002F
:10021000C301441C23294108FA07031C1529F90AC4
:10022000031D1529F80A0319C3174008F907031C11
:100230001C29F80A0319C3173F08BC00BC173C0867
:10024000F8070318C317C30DF80CF90CFA0CC60C09
:10025000C50CC40C0310C20B08290130F7070318A2
:100260005529F81B3A29C60DFA0DF90DF80DF703BB
:1002700003195529C61F4B29FA0A031D4B29F90AF0
:10028000031D4B29F80A031D4B29F80CF90CFA0C35
:10029000F70A031955293B08C3003F08C306C31FCB
:1002A0005329F8175929F8135929F701F801F901C9
:1002B000FA010800310803191F2ABD003508031987
:1002C0001F2ABD02031C69297F30BD0703181F2A9E
:1002D0006F298130BD02031C1F2A03191F2A3D0804
:1002E000F700F801F901FA01BC013208BB00BB17A5
:1002F0003308BA003408B9001930BD003808B90213
:10030000031892290130BA0203189229BB0203187C
:100310009229BC0203189229BC0ABB0ABA0A3808FF
:10032000B907C4293708BA020318AD290130BB0246
:100330000318AD29BC020318AD29BC0ABB0A370853
:10034000BA073808B907031CC429BA0A031DC4290F
:10035000BB0A031DC429BC0AC42936088038BB0265
:100360000318C3290130BC020318C329BC0A36088C
:100370008038BB073708BA07031CA129BB0A031D35
:10038000A129BC0AA1297A14BD0BC729D2290310BF
:10039000B90DBA0DBB0DBC0D0310FA0DF90DF80D1A
:1003A000BE0D7E293E1CDA290310F80CF90CFA0C5C
:1003B000BE0CDD29F70303191F2ABE1B062A0310F2
:1003C000B90DBA0DBB0DBC0D3808B9020318F229DE
:1003D0000130BA020318F229BB020318F229BC0249
:1003E000031C152A3708BA020318FD290130BB0285
:1003F0000318FD29BC02031C152A36088038BB02ED
:100400000318062A0130BC02031C152AFA0A031D30
:10041000152AF90A031D152AF80A031D152AF70AD9
:1004200003191F2AF80CF90CFA0C3208BD00360823
:10043000BD06BD1F1D2AF817232AF813232AF7012A
:10044000F801F901FA0108002E08B5003208B506D6
:10045000B51F2F2A03110310AE1B0314622A2E08A6
:10046000B5003108B6002D08B60203193D2AB51FA4
:10047000622A0308013A8300622A3208B6002E0875
:10048000B6020319492AB51F622A0308013A8300FC
:10049000622A3308B6002F08B6020319552AB51F81
:1004A000622A0308013A8300622A3408B600300841
:1004B000B6020319612AB51F622A0308013A8300B4
:1004C000622A0310080080308318B206B701B80111
:1004D0002E08B6003208B6062D080319532BB500B6
:1004E000F700310803195C2BB5020319F82A031C25
:1004F000B62A3208BB00BB173308BA003408B9006B
:10050000B8010310BB0CBA0CB90CB80CB50B802A9F
:10051000B61F8D2A3714702B371035103716303030
:1005200084008313852B3712B61BA02A351CAB2AF7
:10053000BB0CBA0CB90CB80CF70A03196B2BAB2A1D
:10054000BB1BAE2A0310B80DB90DBA0DBB0DF703D6
:1005500003196B2BA02A3717182B37132E08B60058
:10056000B61FB42ABB17642BBB13642B3108B5002C
:10057000F7002D08B5022E08BB00BB172F08BA00E4
:100580003008B900B8010310BB0CBA0CB90CB80C98
:10059000B50BC22AB61FCF2AB714702BB71035106F
:1005A000B716343084008313852BB712B61BE22AAA
:1005B000351CED2ABB0CBA0CB90CB80CF70A0319A0
:1005C0006B2BED2ABB1BF02A0310B80DB90DBA0D29
:1005D000BB0DF70303196B2BE22AB717182BB713C0
:1005E0003208B600B61FF62ABB17642BBB13642B68
:1005F0003208BB00BB173308BA003408B900B61F75
:10060000052BBB133715702B3711B801351030305F
:1006100084008313852BB61B2E2B2E08B600351CA9
:10062000182BBB0CBA0CB90CB80CF70A03196B2BBE
:10063000B81F292BB90A031D292BBA0A031D292B20
:10064000BB0A031D292BBB0CBA0CB90CF70A031902
:100650006B2B371BAD2AB71BEF2A4D2B8030BB0607
:10066000BB1F362B702B3208B600432B2E08B6006A
:10067000BB08031D432BBA08031D432BB908031DF8
:10068000432BF701642BBB1B4D2B0310B80DB90D89
:10069000BA0DBB0DF70B432B6B2BB61F512BBB17A2
:1006A000642BBB13642B3108F7003208BB003308FE
:1006B000BA003408B900642B2D08F7002E08BB00DF
:1006C0002F08BA003008B9003B08F8003A08F900D2
:1006D0003908FA00A32BF701F801F901FA01A32B5D
:1006E000B801B909BA09BB09B809B80A031D7E2BBC
:1006F000B90A031D7E2BBA0A0319BB0A37188C2AC4
:10070000B718CE2A3719042B332B0008B907031C5E
:100710008F2BBA0A031D8F2BBB0A031935148403D0
:100720000008BA07031C972BBB0A0319351484036E
:100730000008801F803ABB0703183514371A932A24
:10074000B71AD52A0B2B8A110A125F2E8E30F700AA
:100750002D08F7022E08F9002F08F800F917F708FE
:100760000319BD2B0310F908031DB92BF808031951
:10077000BD2BF90CF80CF70BB22BAE1FC42BF809EC
:10078000F909F80A0319F90A8A110A12AB2E3C0B6F
:10079000CA2BCD2B4030BD00CE2BBD0101303B021A
:1007A000BD073D088038BE00BF013E08C00059208B
:1007B00008003A080C3A0319E42B063A0319EC2B0B
:1007C000023A0319F22BF72BBF010130C000592068
:1007D0000230BB003020FD2B0130BB000230BC00DA
:1007E000C723FD2BBF011030C0005920FD2B013065
:1007F000BF003A08C0005920FD2B080083160317DC
:100800008C170C140000000003182D2C83120C0808
:100810007F390313AE0003170D080313AF0003174E
:100820000F080313B0002E08BA00D9232F080317AE
:100830008D000313300803178F0083168C170C14D8
:100840000000000083120313AD0B272C2A2C831603
:1008500003172D2C4B2C8316031783120C0D0E0D32
:100860007F390313AE0003170D080313AF000317FE
:100870000F080313B0002E08BA00D9232F0803175E
:100880008D000313300803178F008D0A03198F0A98
:100890000313AD0BFE2B0800F701F801F901FA0173
:1008A000C201C301C401C501410840043F043E0424
:1008B00003198A2C2030C6000310BA0DBB0DBC0DE5
:1008C000BD0DC20DC30DC40DC50D41084502031D6C
:1008D000732C40084402031D732C3F084302031D80
:1008E000732C3E084202031C842C3E08C2023F08BF
:1008F000031C3F0FC3024008031C400FC402410801
:10090000031C410FC5020314F70DF80DF90DFA0D84
:10091000C60B5C2C42308400831308000408B2002C
:100920003108B4000319AD2C3008BD002F08BC00FD
:100930002E08BB002D08BA00C101C0012030BF0045
:100940008230BE00E5207A08B0007908AF00780850
:10095000AE007708AD00B40B942C3008BD002F0812
:10096000BC002E08BB002D08BA003A08B63CBA00FD
:10097000FA013B08BE00BB170310BB0CBC0CBD0C3E
:10098000FA0CF90CF80CF70CBA0BBC2CBE1FD32CCC
:10099000F709F809F909FA09F70A0319F80A031916
:1009A000F90A0319FA0A7A08B0007908AF00780842
:1009B000AE007708AD00B01FEA2CB203B216AD0945
:1009C000AE09AF09B009AD0A0319AE0A0319AF0A9F
:1009D0000319B00A3B30B9009A30B800CA30B700EA
:1009E000B6010A30B40031080319B20A3008BD005C
:1009F0002F08BC002E08BB002D08BA003908C10022
:100A00003808C0003708BF003608BE004C24000874
:100A1000AD00840A0008AE00840A0008AF00840A12
:100A20000008B000FD308407F708031D2A2D310AA5
:100A3000340203192A2D320803192C2D0F393402E0
:100A40000319242D03185C2DB21B5C2D321B2C2D99
:100A50002030582D2030B205B21E3A2DB212310886
:100A6000031DB2037708B2002D30BA00D923320833
:100A7000F700B20131083402031D482D7708B20097
:100A80002E30BA00D9233208F7002030B2050030EA
:100A90003030B21E582DB2123108031DB203770850
:100AA000B2002D30BA00D9233208F700B20130303D
:100AB000F7077708BA00D9233908BD003808BC0009
:100AC0003708BB003608BA00C101C001BF010A30B7
:100AD000BE004C247A08B9007908B8007808B7003D
:100AE0007708B600B40BF62C0800831603178C1792
:100AF0000C140000000083120C087F390319B92D73
:100B00000313AD0003170D080313AE0003170F08FE
:100B10000313AF002D08BA00D9232E0803178D0048
:100B200003132F0803178F0083168C170C14000073
:100B3000000083120C0D0E0D7F390319B92D03131C
:100B4000AD0003170D080313AE0003170F080313BE
:100B5000AF002D08BA00D9232E0803178D00031308
:100B60002F0803178F008D0A03198F0A0313752DA1
:100B7000031703138A110A123F2F840183131F30B6
:100B8000830583161F149F141F159F1107309C00A7
:100B9000FF308312A00083161F109F141F159F158E
:100BA0001F1383121F179F1783169F1783121F147B
:100BB00096280030F8001F08C73978049F002011DC
:100BC000200883168700831207110C30970000302D
:100BD000F8000638920040308316920083121F15E9
:100BE0001F19F02D83161E088312A1001E08A200F3
:100BF0002208AE002108AD00C6287A08BD00790899
:100C0000BC007808BB007708BA00C101C0017A3087
:100C1000BF008730BE00E5207708AD007808AE0041
:100C20007908AF007A08B000B4007908B3007808FA
:100C3000B2007708B100B801B701B6018930B5003C
:100C40005A217A08A8007908A7007808A600770832
:100C5000A500B001AF012030AE008330AD00280800
:100C6000B4002708B3002608B2002508B1002422EA
:100C700003183C2E031D0E2F2808B0002708AF00D4
:100C80002608AE002508AD00B401B3017030B200F3
:100C90008330B100242203184F2E031D0E2F83141E
:100CA0002808B0002708AF002608AE002508AD00D0
:100CB000B401B3012030B2008330B100632A770859
:100CC000AD007808AE007908AF007A08B000BD002A
:100CD0007908BC007808BB007708BA00C101C001E0
:100CE0002030BF008230BE00E5207A08AC007908D1
:100CF000AB007808AA007708A9002C08B4002B08DC
:100D0000B3002A08B2002908B100B801B701483081
:100D1000B6008530B5005A217708AD007808AE00DE
:100D20007908AF007A08B000BD007908BC007808E7
:100D3000BB007708BA00C101C0010230BF00873094
:100D4000BE00E5207A08B0007908AF007808AE0050
:100D50007708AD00A62B7908A4007808A30001301D
:100D6000BB00BC00C7230C3003178D0000308F0080
:100D7000031007300313AD00FE23893084002808D8
:100D8000B0002708AF002608AE002508AD000130EE
:100D9000B1008E24113003178D0000308F00031432
:100DA00005300313AD00FE230130BB000230BC0050
:100DB000C723153003178D0000308F000310073054
:100DC0000313AD00FE23893084002C08B0002B08EB
:100DD000AF002A08AE002908AD000130B1008E2412
:100DE0001A3003178D0000308F00031405300313F1
:100DF000AD00FE232408F9002308F800F90CF80CD4
:100E0000F90CF80CF90C78089500F90C790C3039CC
:100E1000F7001708CF39770497003F2F0130BB0048
:100E2000BC00C7231E3003178D0000308F00031055
:100E300007300313AD00FE23893084002808B0007A
:100E40002708AF002608AE002508AD000130B1002C
:100E50008E24233003178D0000308F0003140530DB
:100E60000313AD00FE230130BB000230BC00C723DA
:100E7000273003178D0000308F000313752DEF2DE1
:020E800063000D
:02400E00713F00
:00000001FF
;PIC16F877A
;CRC=23D5  CREATED="17-Apr-20 20:50"
