:1000000001308A00462900000A108A100A1182076E
:1000100028340C3401340634300EF039F7000F3038
:100020000805770488000000081408100800080874
:10003000F700080E0F39F800080088100F308316FB
:100040000805F03888008312081500000814000025
:1000500017207808B000081000000814172078084E
:10006000AF0008100F308316080588008312300E89
:10007000F700F030F70577082F04F8007808AF0094
:10008000AF1B1E282D1C88102D1888140000081185
:10009000000008102E0EAF000F30AF052F08B00083
:1000A0000C202E080F39AF00B0000C2008000F30D4
:1000B000831608058800081088100811831288101C
:1000C000081108100F30A3002330840083130008A8
:1000D000031971282830F700F70B6C280000800BFB
:1000E0006A280130A2002208033C031C8028033048
:1000F000B0000C20D030F700F70B7C28A20A732840
:100100000230B0000C20A2012208033C031C9128FD
:1001100022080420A300AD012308AE001D20A20A7E
:1001200084288A110A1278292908F801280203185C
:100130009C282808F700A828F7010830AA00A80D75
:10014000F70D290877020318F700F80DAA0B9F286E
:10015000080028080C3A0319B428063A0319BD28E8
:10016000023A0319D328D828AD010130AE001D2072
:100170005330F700F70BBA28DE280130A90002300F
:10018000AA002A0BC428C7284030AB00C828AB01FE
:1001900001302902AB072B088038AC00AD012C08D8
:1001A000AE001D20DE28AD011030AE001D20DE287F
:1001B0000130AD002808AE001D20DE2808002030E8
:1001C000231E3030A4002208F700A21FEE28F709F2
:1001D000F70A7708A2002D30A400A3172208A80070
:1001E0006430A90094207708A20030307807A50079
:1001F0002208A8000A30A900942030307707A70011
:1002000030307807A6002408F700A31D0929A31F92
:100210002311231A1629A31F3129231931297708FD
:10022000A500A31831297708A6003129303025020E
:10023000031D31297708A5002030A400A31D24291F
:100240002311A314A31FA31030302602031D31294C
:100250007708A6002030A500A31D2429A310A31F02
:100260002310231D36292408A800A920A31C3B29FC
:100270002508A800A920231C40292608A800A92099
:100280002708A800A9208A110A128429840183134F
:100290001F30830583161F149F141F159F110730ED
:1002A0009C00FF308312A10083161F109F141F159E
:1002B0009F151F1383121F179F1783169F178312F3
:1002C0001F140030F8001F08C73978049F0021115F
:1002D000210883168700831207110C309700003025
:1002E000F800063892009B3083169200831257283C
:1002F0001F151F19792983161E088312A0002008D4
:0A030000A2001F30A300DF286300F5
:02400E00713F00
:00000001FF
;PIC16F877A
;CRC=54F7  CREATED="16-May-20 00:15"
