:1000000004308A000C2C00000A108A100A118207A2
:1000100028340C34013406347C2AC526D01EA012A4
:10002000AE18E62DC32E203E00007C1020102010BC
:100030002010201020102010203E000035308400B9
:1000400083130008031931280630F800F701F70B75
:100050002728F80B26287B30F700F70B2D28800B7C
:10006000242808003C0EF039F7000F30080577040B
:100070008800000008140330F700F70B3D28081033
:1000800008000808F700080E0F39F800080088106B
:100090000F3083160805F038880083120815000019
:1000A0000814000041207808BC0008100000081463
:1000B00059285A28000041207808BB0008100F304A
:1000C00083160805880083123C0EF700F030F70510
:1000D00077083B04F8007808BB00BB1B4828391C94
:1000E00088103918881400000811000008103A0E12
:1000F000BB000F30BB053B08BC0032203A080F396B
:10010000BB00BC00322008000F30831608058800B1
:1001100008108810081183128810081108100F3079
:10012000B5001E200130A7002708033C031CA028AF
:100130000330BC0032200530B5001E20A70A9428E9
:100140000230BC003220A7012708033C031CB12861
:1001500027080420A800B9012808BA004720A70AE8
:10016000A4288A110A12242C8E30F7002808F800DF
:100170002708F900FA01F808031DC8287908F800D3
:10018000F9010830F702F808031DC828F701D02844
:100190000310F81BCF28F90DF80DF703C828F81342
:1001A0008A110A12382C340803194329BC00380874
:1001B00003194329BC070318E4287F30BC02031C41
:1001C000432903194329E8288130BC070318432930
:1001D0003C08F700F801F901FA013508C000C01722
:1001E0003608BF003708BE001830BC00BD013E1CF9
:1001F00011293B08FA07031C0329F90A031D0329E7
:10020000F80A0319BD173A08F907031C0A29F80A66
:100210000319BD173908B600B6173608F8070318D2
:10022000BD17BD0DF80CF90CFA0CC00CBF0CBE0CC0
:100230000310BC0BF6280130F70703184329F81BFD
:100240002829C00DFA0DF90DF80DF70303194329FC
:10025000C01F3929FA0A031D3929F90A031D392952
:10026000F80A031D3929F80CF90CFA0CF70A0319DE
:1002700043293508BD003908BD06BD1F4129F817BF
:100280004729F8134729F701F801F901FA01080095
:100290002B0803190D2AB7002F0803190D2AB702DE
:1002A000031C57297F30B70703180D2A5D298130B9
:1002B000B702031C0D2A03190D2A3708F700F801AD
:1002C000F901FA01B6012C08B500B5172D08B400E4
:1002D0002E08B3001930B7003208B3020318802982
:1002E0000130B40203188029B50203188029B60230
:1002F00003188029B60AB50AB40A3208B307B2292E
:100300003108B40203189B290130B50203189B2958
:10031000B60203189B29B60AB50A3108B407320899
:10032000B307031CB229B40A031DB229B50A031D81
:10033000B229B60AB22930088038B5020318B129AB
:100340000130B6020318B129B60A30088038B50763
:100350003108B407031C8F29B50A031D8F29B60A7B
:100360008F297A14B70BB529C0290310B30DB40D2A
:10037000B50DB60D0310FA0DF90DF80DB80D6C2979
:10038000381CC8290310F80CF90CFA0CB80CCB294E
:10039000F70303190D2AB81BF4290310B30DB40D8C
:1003A000B50DB60D3208B3020318E0290130B402CE
:1003B0000318E029B5020318E029B602031C032A3A
:1003C0003108B4020318EB290130B5020318EB29F8
:1003D000B602031C032A30088038B5020318F4293A
:1003E0000130B602031C032AFA0A031D032AF90A84
:1003F000031D032AF80A031D032AF70A03190D2A0D
:10040000F80CF90CFA0C2C08B7003008B706B71F27
:100410000B2AF817112AF813112AF701F801F9012C
:10042000FA018A110A125C2C360B172A1A2A40305C
:10043000B7001B2AB70101303502B70737088038EB
:10044000B800B9013808BA004720080034080C3A4F
:100450000319312A063A0319392A023A03193F2AA5
:10046000442AB9010130BA0047200230B5001E20ED
:100470004A2A0130B5000230B60014224A2AB901D6
:100480001030BA0047204A2A0130B9003408BA00B7
:1004900047204A2A0800831603178C170C14000003
:1004A000000003187A2A83120C087F390313A8006E
:1004B00003170D080313A90003170F080313AA005D
:1004C0002808B4002622290803178D0003132A08E0
:1004D00003178F0083168C170C1400000000831282
:1004E0000313A70B742A772A831603177A2A982AEC
:1004F0008316031783120C0D0E0D7F390313A8000A
:1005000003170D080313A90003170F080313AA000C
:100510002808B4002622290803178D0003132A088F
:1005200003178F008D0A03198F0A0313A70B4B2A99
:100530000800F701F801F901FA01BC01BD01BE0193
:10054000BF013B083A04390438040319D72A203084
:10055000C0000310B40DB50DB60DB70DBC0DBD0D2B
:10056000BE0DBF0D3B083F02031DC02A3A083E02E4
:10057000031DC02A39083D02031DC02A38083C0269
:10058000031CD12A3808BC023908031C390FBD02EC
:100590003A08031C3A0FBE023B08031C3B0FBF0284
:1005A0000314F70DF80DF90DFA0DC00BA92A3C3014
:1005B0008400831308000408AC002B08AE00031964
:1005C000FA2A2A08B7002908B6002808B500270823
:1005D000B400BB01BA012030B9008230B800D3208A
:1005E0007A08AA007908A9007808A8007708A70067
:1005F000AE0BE12A2A08B7002908B6002808B50082
:100600002708B4003408B63CB400FA013508B80035
:10061000B5170310B50CB60CB70CFA0CF90CF80CA6
:10062000F70CB40B092BB81F202BF709F809F909AF
:10063000FA09F70A0319F80A0319F90A0319FA0A59
:100640007A08AA007908A9007808A8007708A70006
:10065000AA1F372BAC03AC16A709A809A909AA0938
:10066000A70A0319A80A0319A90A0319AA0A3B3001
:10067000B3009A30B200CA30B100B0010A30AE0007
:100680002B080319AC0A2A08B7002908B600280865
:10069000B5002708B4003308BB003208BA0031089F
:1006A000B9003008B80099220008A700840A0008A1
:1006B000A800840A0008A900840A0008AA00FD30E6
:1006C0008407F708031D772B2B0A2E020319772BBB
:1006D0002C080319792B0F392E020319712B0318DB
:1006E000A92BAC1BA92B2C1B792B2030A52B203040
:1006F000AC05AC1E872BAC122B08031DAC0377088E
:10070000AC002D30B40026222C08F700AC012B08D9
:100710002E02031D952B7708AC002E30B400262244
:100720002C08F7002030AC0500303030AC1EA52B73
:10073000AC122B08031DAC037708AC002D30B400BD
:1007400026222C08F700AC013030F7077708B400F8
:1007500026223308B7003208B6003108B500300849
:10076000B400BB01BA01B9010A30B80099227A0875
:10077000B3007908B2007808B1007708B000AE0B7A
:10078000432B8A110A127F2C831603178C170C1423
:100790000000000083120C087F390319082C031392
:1007A000A70003170D080313A80003170F0803136E
:1007B000A9002708B4002622280803178D00031378
:1007C000290803178F0083168C170C1400000000F3
:1007D00083120C0D0E0D7F390319082C0313A7008B
:1007E00003170D080313A80003170F080313A9002C
:1007F0002708B4002622280803178D0003132908B0
:1008000003178F008D0A03198F0A0313C42B0317D4
:1008100003138A110A12952C840183131F30830558
:1008200083161F149F141F159F1107309C001F1063
:100830009F141F159F151F1383121F179F178316D1
:100840009F1783121F1484280030F8001F08C7392F
:1008500078049F001F151F192B2C83161E08831266
:10086000A1001E08A2002208A8002108A700B428A1
:100870007A08B7007908B6007808B5007708B400A0
:10088000BB01BA017A30B9008730B800D3207708AD
:10089000A7007808A8007908A9007A08AA00AE0085
:1008A0007908AD007808AC007708AB00B201B1015F
:1008B000B0018930AF0048297A08A6007908A50060
:1008C0007808A4007708A3000130B500B600142210
:1008D0000C3003178D0000308F0003100730031316
:1008E000A7004B22893084002608AA002508A90009
:1008F0002408A8002308A7000130AB00DB2A113030
:1009000003178D0000308F00031405300313A70078
:100910004B220130B5000230B60014221530031707
:0E0920008D0000308F000313C42B2A2C6300BF
:02400E00713F00
:00000001FF
;PIC16F877A
;CRC=9F71  CREATED="17-Apr-20 20:52"
